{
  "_format": "hh-sol-artifact-1",
  "contractName": "OmniVault",
  "sourceName": "contracts/OmniVault.sol",
  "abi": [
    {
      "anonymous": false,
      "inputs": [
        {
          "indexed": true,
          "internalType": "string",
          "name": "fileHash",
          "type": "string"
        },
        {
          "indexed": true,
          "internalType": "address",
          "name": "buyer",
          "type": "address"
        },
        {
          "indexed": false,
          "internalType": "uint256",
          "name": "amount",
          "type": "uint256"
        }
      ],
      "name": "AccessPurchased",
      "type": "event"
    },
    {
      "anonymous": false,
      "inputs": [
        {
          "indexed": true,
          "internalType": "string",
          "name": "fileHash",
          "type": "string"
        },
        {
          "indexed": true,
          "internalType": "address",
          "name": "owner",
          "type": "address"
        },
        {
          "indexed": false,
          "internalType": "uint256",
          "name": "price",
          "type": "uint256"
        }
      ],
      "name": "DocumentNotarized",
      "type": "event"
    },
    {
      "inputs": [
        {
          "internalType": "string",
          "name": "_fileHash",
          "type": "string"
        },
        {
          "internalType": "address",
          "name": "_user",
          "type": "address"
        }
      ],
      "name": "checkAccess",
      "outputs": [
        {
          "internalType": "bool",
          "name": "",
          "type": "bool"
        }
      ],
      "stateMutability": "view",
      "type": "function"
    },
    {
      "inputs": [
        {
          "internalType": "string",
          "name": "_fileHash",
          "type": "string"
        }
      ],
      "name": "getDocument",
      "outputs": [
        {
          "internalType": "string",
          "name": "",
          "type": "string"
        },
        {
          "internalType": "address",
          "name": "",
          "type": "address"
        },
        {
          "internalType": "uint256",
          "name": "",
          "type": "uint256"
        },
        {
          "internalType": "uint256",
          "name": "",
          "type": "uint256"
        },
        {
          "internalType": "bool",
          "name": "",
          "type": "bool"
        }
      ],
      "stateMutability": "view",
      "type": "function"
    },
    {
      "inputs": [
        {
          "internalType": "string",
          "name": "_fileHash",
          "type": "string"
        },
        {
          "internalType": "string",
          "name": "_cloudURL",
          "type": "string"
        },
        {
          "internalType": "uint256",
          "name": "_price",
          "type": "uint256"
        }
      ],
      "name": "notarizeDocument",
      "outputs": [],
      "stateMutability": "nonpayable",
      "type": "function"
    },
    {
      "inputs": [
        {
          "internalType": "string",
          "name": "_fileHash",
          "type": "string"
        }
      ],
      "name": "purchaseAccess",
      "outputs": [],
      "stateMutability": "payable",
      "type": "function"
    }
  ],
  "bytecode": "0x608060405234801561001057600080fd5b5061147f806100206000396000f3fe60806040526004361061003f5760003560e01c80631eacd7db1461004457806344a08b36146100605780637ccb6a641461009d578063e599c0fb146100de575b600080fd5b61005e60048036038101906100599190610b3e565b610107565b005b34801561006c57600080fd5b5061008760048036038101906100829190610be5565b61044f565b6040516100949190610c5c565b60405180910390f35b3480156100a957600080fd5b506100c460048036038101906100bf9190610b3e565b610540565b6040516100d5959493929190610d1e565b60405180910390f35b3480156100ea57600080fd5b5061010560048036038101906101009190610da4565b6107d3565b005b600080826040516101189190610e6b565b908152602001604051809103902090508060050160019054906101000a900460ff16610179576040517f08c379a000000000000000000000000000000000000000000000000000000000815260040161017090610ece565b60405180910390fd5b8060050160009054906101000a900460ff166101ca576040517f08c379a00000000000000000000000000000000000000000000000000000000081526004016101c190610f3a565b60405180910390fd5b8060040154341015610211576040517f08c379a000000000000000000000000000000000000000000000000000000000815260040161020890610fa6565b60405180910390fd5b8060020160009054906101000a900473ffffffffffffffffffffffffffffffffffffffff1673ffffffffffffffffffffffffffffffffffffffff163373ffffffffffffffffffffffffffffffffffffffff16036102a3576040517f08c379a000000000000000000000000000000000000000000000000000000000815260040161029a90611012565b60405180910390fd5b60008160020160009054906101000a900473ffffffffffffffffffffffffffffffffffffffff1673ffffffffffffffffffffffffffffffffffffffff16346040516102ed90611063565b60006040518083038185875af1925050503d806000811461032a576040519150601f19603f3d011682016040523d82523d6000602084013e61032f565b606091505b5050905080610373576040517f08c379a000000000000000000000000000000000000000000000000000000000815260040161036a906110c4565b60405180910390fd5b600180846040516103849190610e6b565b908152602001604051809103902060003373ffffffffffffffffffffffffffffffffffffffff1673ffffffffffffffffffffffffffffffffffffffff16815260200190815260200160002060006101000a81548160ff0219169083151502179055503373ffffffffffffffffffffffffffffffffffffffff168360405161040b9190610e6b565b60405180910390207ff65c9ac4a0b18adcc24d31acfd3e37a0de320eba45f9060a39f3b350f2147e8d3460405161044291906110e4565b60405180910390a3505050565b60008173ffffffffffffffffffffffffffffffffffffffff166000846040516104789190610e6b565b908152602001604051809103902060020160009054906101000a900473ffffffffffffffffffffffffffffffffffffffff1673ffffffffffffffffffffffffffffffffffffffff16036104ce576001905061053a565b6001836040516104de9190610e6b565b908152602001604051809103902060008373ffffffffffffffffffffffffffffffffffffffff1673ffffffffffffffffffffffffffffffffffffffff16815260200190815260200160002060009054906101000a900460ff1690505b92915050565b60606000806000806000866040516105589190610e6b565b908152602001604051809103902060050160019054906101000a900460ff166105b6576040517f08c379a00000000000000000000000000000000000000000000000000000000081526004016105ad90610ece565b60405180910390fd5b600080876040516105c79190610e6b565b90815260200160405180910390206040518060e00160405290816000820180546105f09061112e565b80601f016020809104026020016040519081016040528092919081815260200182805461061c9061112e565b80156106695780601f1061063e57610100808354040283529160200191610669565b820191906000526020600020905b81548152906001019060200180831161064c57829003601f168201915b505050505081526020016001820180546106829061112e565b80601f01602080910402602001604051908101604052809291908181526020018280546106ae9061112e565b80156106fb5780601f106106d0576101008083540402835291602001916106fb565b820191906000526020600020905b8154815290600101906020018083116106de57829003601f168201915b505050505081526020016002820160009054906101000a900473ffffffffffffffffffffffffffffffffffffffff1673ffffffffffffffffffffffffffffffffffffffff1673ffffffffffffffffffffffffffffffffffffffff16815260200160038201548152602001600482015481526020016005820160009054906101000a900460ff161515151581526020016005820160019054906101000a900460ff161515151581525050905080602001518160400151826060015183608001518460a00151955095509550955095505091939590929450565b6000836040516107e39190610e6b565b908152602001604051809103902060050160019054906101000a900460ff1615610842576040517f08c379a0000000000000000000000000000000000000000000000000000000008152600401610839906111ab565b60405180910390fd5b6040518060e001604052808481526020018381526020013373ffffffffffffffffffffffffffffffffffffffff1681526020014281526020018281526020016000831115158152602001600115158152506000846040516108a39190610e6b565b908152602001604051809103902060008201518160000190816108c69190611377565b5060208201518160010190816108dc9190611377565b5060408201518160020160006101000a81548173ffffffffffffffffffffffffffffffffffffffff021916908373ffffffffffffffffffffffffffffffffffffffff160217905550606082015181600301556080820151816004015560a08201518160050160006101000a81548160ff02191690831515021790555060c08201518160050160016101000a81548160ff0219169083151502179055509050503373ffffffffffffffffffffffffffffffffffffffff16836040516109a09190610e6b565b60405180910390207ffd2f9c0dbc3846505df582281976be0ad2a863c4c7fa0f74a389f0d80f527d98836040516109d791906110e4565b60405180910390a3505050565b6000604051905090565b600080fd5b600080fd5b600080fd5b600080fd5b6000601f19601f8301169050919050565b7f4e487b7100000000000000000000000000000000000000000000000000000000600052604160045260246000fd5b610a4b82610a02565b810181811067ffffffffffffffff82111715610a6a57610a69610a13565b5b80604052505050565b6000610a7d6109e4565b9050610a898282610a42565b919050565b600067ffffffffffffffff821115610aa957610aa8610a13565b5b610ab282610a02565b9050602081019050919050565b82818337600083830152505050565b6000610ae1610adc84610a8e565b610a73565b905082815260208101848484011115610afd57610afc6109fd565b5b610b08848285610abf565b509392505050565b600082601f830112610b2557610b246109f8565b5b8135610b35848260208601610ace565b91505092915050565b600060208284031215610b5457610b536109ee565b5b600082013567ffffffffffffffff811115610b7257610b716109f3565b5b610b7e84828501610b10565b91505092915050565b600073ffffffffffffffffffffffffffffffffffffffff82169050919050565b6000610bb282610b87565b9050919050565b610bc281610ba7565b8114610bcd57600080fd5b50565b600081359050610bdf81610bb9565b92915050565b60008060408385031215610bfc57610bfb6109ee565b5b600083013567ffffffffffffffff811115610c1a57610c196109f3565b5b610c2685828601610b10565b9250506020610c3785828601610bd0565b9150509250929050565b60008115159050919050565b610c5681610c41565b82525050565b6000602082019050610c716000830184610c4d565b92915050565b600081519050919050565b600082825260208201905092915050565b60005b83811015610cb1578082015181840152602081019050610c96565b60008484015250505050565b6000610cc882610c77565b610cd28185610c82565b9350610ce2818560208601610c93565b610ceb81610a02565b840191505092915050565b610cff81610ba7565b82525050565b6000819050919050565b610d1881610d05565b82525050565b600060a0820190508181036000830152610d388188610cbd565b9050610d476020830187610cf6565b610d546040830186610d0f565b610d616060830185610d0f565b610d6e6080830184610c4d565b9695505050505050565b610d8181610d05565b8114610d8c57600080fd5b50565b600081359050610d9e81610d78565b92915050565b600080600060608486031215610dbd57610dbc6109ee565b5b600084013567ffffffffffffffff811115610ddb57610dda6109f3565b5b610de786828701610b10565b935050602084013567ffffffffffffffff811115610e0857610e076109f3565b5b610e1486828701610b10565b9250506040610e2586828701610d8f565b9150509250925092565b600081905092915050565b6000610e4582610c77565b610e4f8185610e2f565b9350610e5f818560208601610c93565b80840191505092915050565b6000610e778284610e3a565b915081905092915050565b7f446f63756d656e74206e6f7420666f756e642e00000000000000000000000000600082015250565b6000610eb8601383610c82565b9150610ec382610e82565b602082019050919050565b60006020820190508181036000830152610ee781610eab565b9050919050565b7f446f63756d656e74206e6f7420666f722073616c652e00000000000000000000600082015250565b6000610f24601683610c82565b9150610f2f82610eee565b602082019050919050565b60006020820190508181036000830152610f5381610f17565b9050919050565b7f496e73756666696369656e74207061796d656e742e0000000000000000000000600082015250565b6000610f90601583610c82565b9150610f9b82610f5a565b602082019050919050565b60006020820190508181036000830152610fbf81610f83565b9050919050565b7f4f776e657220616c726561647920686173206163636573732e00000000000000600082015250565b6000610ffc601983610c82565b915061100782610fc6565b602082019050919050565b6000602082019050818103600083015261102b81610fef565b9050919050565b600081905092915050565b50565b600061104d600083611032565b91506110588261103d565b600082019050919050565b600061106e82611040565b9150819050919050565b7f4661696c656420746f2073656e6420457468657220746f206f776e65722e0000600082015250565b60006110ae601e83610c82565b91506110b982611078565b602082019050919050565b600060208201905081810360008301526110dd816110a1565b9050919050565b60006020820190506110f96000830184610d0f565b92915050565b7f4e487b7100000000000000000000000000000000000000000000000000000000600052602260045260246000fd5b6000600282049050600182168061114657607f821691505b602082108103611159576111586110ff565b5b50919050565b7f446f63756d656e7420616c7265616479206578697374732e0000000000000000600082015250565b6000611195601883610c82565b91506111a08261115f565b602082019050919050565b600060208201905081810360008301526111c481611188565b9050919050565b60008190508160005260206000209050919050565b60006020601f8301049050919050565b600082821b905092915050565b60006008830261122d7fffffffffffffffffffffffffffffffffffffffffffffffffffffffffffffffff826111f0565b61123786836111f0565b95508019841693508086168417925050509392505050565b6000819050919050565b600061127461126f61126a84610d05565b61124f565b610d05565b9050919050565b6000819050919050565b61128e83611259565b6112a261129a8261127b565b8484546111fd565b825550505050565b600090565b6112b76112aa565b6112c2818484611285565b505050565b5b818110156112e6576112db6000826112af565b6001810190506112c8565b5050565b601f82111561132b576112fc816111cb565b611305846111e0565b81016020851015611314578190505b611328611320856111e0565b8301826112c7565b50505b505050565b600082821c905092915050565b600061134e60001984600802611330565b1980831691505092915050565b6000611367838361133d565b9150826002028217905092915050565b61138082610c77565b67ffffffffffffffff81111561139957611398610a13565b5b6113a3825461112e565b6113ae8282856112ea565b600060209050601f8311600181146113e157600084156113cf578287015190505b6113d9858261135b565b865550611441565b601f1984166113ef866111cb565b60005b82811015611417578489015182556001820191506020850194506020810190506113f2565b868310156114345784890151611430601f89168261133d565b8355505b6001600288020188555050505b50505050505056fea264697066735822122089c2bf73b8a168a2b2ba3b924f90e8b8a6f3e9b17440da9773998d4a443306ea64736f6c63430008140033",
  "linkReferences": {},
  "deployedLinkReferences": {}
}