{
  "_format": "hh-sol-artifact-1",
  "contractName": "OmniVault",
  "sourceName": "contracts/OmniVault.sol",
  "abi": [
    {
      "anonymous": false,
      "inputs": [
        {
          "indexed": true,
          "internalType": "string",
          "name": "fileHash",
          "type": "string"
        },
        {
          "indexed": true,
          "internalType": "address",
          "name": "owner",
          "type": "address"
        }
      ],
      "name": "DocumentNotarized",
      "type": "event"
    },
    {
      "inputs": [
        {
          "internalType": "string",
          "name": "_fileHash",
          "type": "string"
        },
        {
          "internalType": "string",
          "name": "_cloudURL",
          "type": "string"
        }
      ],
      "name": "notarizeDocument",
      "outputs": [],
      "stateMutability": "nonpayable",
      "type": "function"
    },
    {
      "inputs": [
        {
          "internalType": "string",
          "name": "_fileHash",
          "type": "string"
        }
      ],
      "name": "verifyDocument",
      "outputs": [
        {
          "internalType": "string",
          "name": "",
          "type": "string"
        },
        {
          "internalType": "address",
          "name": "",
          "type": "address"
        },
        {
          "internalType": "uint256",
          "name": "",
          "type": "uint256"
        }
      ],
      "stateMutability": "view",
      "type": "function"
    }
  ],
  "bytecode": "0x608060405234801561001057600080fd5b50610c1f806100206000396000f3fe608060405234801561001057600080fd5b50600436106100365760003560e01c8063a7803d6a1461003b578063beee5eb714610057575b600080fd5b61005560048036038101906100509190610608565b610089565b005b610071600480360381019061006c9190610680565b610253565b604051610080939291906107a2565b60405180910390f35b600082604051610099919061081c565b908152602001604051809103902060040160009054906101000a900460ff16156100f8576040517f08c379a00000000000000000000000000000000000000000000000000000000081526004016100ef9061087f565b60405180910390fd5b6040518060a001604052808381526020018281526020013373ffffffffffffffffffffffffffffffffffffffff16815260200142815260200160011515815250600083604051610148919061081c565b9081526020016040518091039020600082015181600001908161016b9190610aab565b5060208201518160010190816101819190610aab565b5060408201518160020160006101000a81548173ffffffffffffffffffffffffffffffffffffffff021916908373ffffffffffffffffffffffffffffffffffffffff1602179055506060820151816003015560808201518160040160006101000a81548160ff0219169083151502179055509050503373ffffffffffffffffffffffffffffffffffffffff168260405161021b919061081c565b60405180910390207f6217f0b68fdf6ca6cabe0b3236bc331e284ec5980abf567f9a2666db226b41f560405160405180910390a35050565b6060600080600084604051610268919061081c565b908152602001604051809103902060040160009054906101000a900460ff166102c6576040517f08c379a00000000000000000000000000000000000000000000000000000000081526004016102bd90610bc9565b60405180910390fd5b600080856040516102d7919061081c565b90815260200160405180910390206040518060a0016040529081600082018054610300906108ce565b80601f016020809104026020016040519081016040528092919081815260200182805461032c906108ce565b80156103795780601f1061034e57610100808354040283529160200191610379565b820191906000526020600020905b81548152906001019060200180831161035c57829003601f168201915b50505050508152602001600182018054610392906108ce565b80601f01602080910402602001604051908101604052809291908181526020018280546103be906108ce565b801561040b5780601f106103e05761010080835404028352916020019161040b565b820191906000526020600020905b8154815290600101906020018083116103ee57829003601f168201915b505050505081526020016002820160009054906101000a900473ffffffffffffffffffffffffffffffffffffffff1673ffffffffffffffffffffffffffffffffffffffff1673ffffffffffffffffffffffffffffffffffffffff168152602001600382015481526020016004820160009054906101000a900460ff1615151515815250509050806020015181604001518260600151935093509350509193909250565b6000604051905090565b600080fd5b600080fd5b600080fd5b600080fd5b6000601f19601f8301169050919050565b7f4e487b7100000000000000000000000000000000000000000000000000000000600052604160045260246000fd5b610515826104cc565b810181811067ffffffffffffffff82111715610534576105336104dd565b5b80604052505050565b60006105476104ae565b9050610553828261050c565b919050565b600067ffffffffffffffff821115610573576105726104dd565b5b61057c826104cc565b9050602081019050919050565b82818337600083830152505050565b60006105ab6105a684610558565b61053d565b9050828152602081018484840111156105c7576105c66104c7565b5b6105d2848285610589565b509392505050565b600082601f8301126105ef576105ee6104c2565b5b81356105ff848260208601610598565b91505092915050565b6000806040838503121561061f5761061e6104b8565b5b600083013567ffffffffffffffff81111561063d5761063c6104bd565b5b610649858286016105da565b925050602083013567ffffffffffffffff81111561066a576106696104bd565b5b610676858286016105da565b9150509250929050565b600060208284031215610696576106956104b8565b5b600082013567ffffffffffffffff8111156106b4576106b36104bd565b5b6106c0848285016105da565b91505092915050565b600081519050919050565b600082825260208201905092915050565b60005b838110156107035780820151818401526020810190506106e8565b60008484015250505050565b600061071a826106c9565b61072481856106d4565b93506107348185602086016106e5565b61073d816104cc565b840191505092915050565b600073ffffffffffffffffffffffffffffffffffffffff82169050919050565b600061077382610748565b9050919050565b61078381610768565b82525050565b6000819050919050565b61079c81610789565b82525050565b600060608201905081810360008301526107bc818661070f565b90506107cb602083018561077a565b6107d86040830184610793565b949350505050565b600081905092915050565b60006107f6826106c9565b61080081856107e0565b93506108108185602086016106e5565b80840191505092915050565b600061082882846107eb565b915081905092915050565b7f446f63756d656e7420616c7265616479206578697374732e0000000000000000600082015250565b60006108696018836106d4565b915061087482610833565b602082019050919050565b600060208201905081810360008301526108988161085c565b9050919050565b7f4e487b7100000000000000000000000000000000000000000000000000000000600052602260045260246000fd5b600060028204905060018216806108e657607f821691505b6020821081036108f9576108f861089f565b5b50919050565b60008190508160005260206000209050919050565b60006020601f8301049050919050565b600082821b905092915050565b6000600883026109617fffffffffffffffffffffffffffffffffffffffffffffffffffffffffffffffff82610924565b61096b8683610924565b95508019841693508086168417925050509392505050565b6000819050919050565b60006109a86109a361099e84610789565b610983565b610789565b9050919050565b6000819050919050565b6109c28361098d565b6109d66109ce826109af565b848454610931565b825550505050565b600090565b6109eb6109de565b6109f68184846109b9565b505050565b5b81811015610a1a57610a0f6000826109e3565b6001810190506109fc565b5050565b601f821115610a5f57610a30816108ff565b610a3984610914565b81016020851015610a48578190505b610a5c610a5485610914565b8301826109fb565b50505b505050565b600082821c905092915050565b6000610a8260001984600802610a64565b1980831691505092915050565b6000610a9b8383610a71565b9150826002028217905092915050565b610ab4826106c9565b67ffffffffffffffff811115610acd57610acc6104dd565b5b610ad782546108ce565b610ae2828285610a1e565b600060209050601f831160018114610b155760008415610b03578287015190505b610b0d8582610a8f565b865550610b75565b601f198416610b23866108ff565b60005b82811015610b4b57848901518255600182019150602085019450602081019050610b26565b86831015610b685784890151610b64601f891682610a71565b8355505b6001600288020188555050505b505050505050565b7f446f63756d656e74206e6f7420666f756e642e00000000000000000000000000600082015250565b6000610bb36013836106d4565b9150610bbe82610b7d565b602082019050919050565b60006020820190508181036000830152610be281610ba6565b905091905056fea26469706673582212204c922611207687002b36ad532c5fc79edf21f5237b089451398018f28c6f400b64736f6c63430008140033",
  "linkReferences": {},
  "deployedLinkReferences": {}
}